:100000000C94C5150C94ED150C94ED150C94ED1590
:100010000C94ED150C94ED150C94ED150C94ED1558
:100020000C94ED150C94ED150C94241C0C94931C5D
:100030000C94ED150C94ED150C94ED150C94ED1538
:100040000C94ED150C94ED150C94ED150C94ED1528
:100050000C94ED150C94ED150C94ED150C94C51E37
:100060000C94ED150C94ED150C94ED150C94ED1508
:100070000C94ED150C94ED150C94ED150C94ED15F8
:100080000C940F1F0C94ED150C94ED150C94ED15BC
:100090000C94ED150C94ED150C94ED150C94ED15D8
:1000A0000C94ED150C94ED150C94ED150000000268
:1000B00000090F0000030401000C00000000000014
:1000C0000000000000000000000000080B00020219
:1000D00002000009040000010202000005240010D3
:1000E000010524010101042402060524060001077C
:1000F00005810310004009040100020A0000000706
:1001000005020240000007058302400000040309C5
:100110000412010002EF0201404123368000010178
:1001200002030141726475696E6F204C4C430041BB
:10013000726475696E6F204C656F6E6172646F00DA
:10014000F0F89C8E8783878E9CF8F00000FEFF03FA
:1001500003030303070EFCF80000FEFF0303030381
:1001600003070EFCF80000FFFF0000000000000085
:10017000FFFF0000FEFF8383838383C7EE7C38008C
:1001800000F8FC0E07030303070EFCF800003F7F96
:10019000E0C08080C0E07F3FFFFF0101010101015D
:1001A00001FFFF0000FFFF0C0C0C0C1C3E77E3C1AD
:1001B00000007FFFC0C0C0C0C0E0703F1F00001F34
:1001C0003F70E0C0C0C0E0703F1F00007FFFC1C1B2
:1001D000C1C1C1E3773E1C00001F3F70E0C0C0C03A
:1001E000E0703F1F000000000001FFFF0100000061
:1001F000D5F08D14A1C881CFD9F1AF2000003E0AFF
:1002000004003E0A34003E2A2200242A1200242A36
:10021000120000003C0A3C0000000000000000004A
:1002200000000080C000C0C0C0C000C0800000004E
:1002300080C000C0C0C0C0C08000000080C000C03E
:10024000C0C0C000C08000000000000000000080AE
:10025000C000C0C0C0C000C08000000080C000C09E
:10026000C0C0C000C080000000C0C0C000C0C0004E
:10027000C0C0C0000000C0C0C000C0C000C0C0C03E
:10028000000000C0C000000000000000000080C0AE
:1002900000C0C0C0C0C0800000000000000000001E
:1002A00000000047CF00CCCCCCCC00FC7800000094
:1002B0007FFF00CCCCCCCCC040000000FFFF000C86
:1002C0000C0C0C00FFFF0000000000000000007F8D
:1002D000FF00CCCCCCCC00F361000000FFFF000C91
:1002E0000C0C0C00FFFF00000000000000FFFF00EE
:1002F00000000000000000000000FFFF0000000000
:10030000000000FFFF00C0C0C0C0C00000007FFFB1
:1003100000CCCCCCCCC040000000000000000000AD
:1003200000000000000000000000000000000000CD
:1003300000000000000000000000000000000000BD
:1003400000000000000000000000000000000000AD
:10035000000000000000000000000000000000009D
:100360000000000000000000000000000080C0E06D
:10037000F0D0D0F0E0C080000000000000000000DD
:10038000000000000000000000000000000000006D
:10039000000000000000000000000000000000005D
:1003A000000000000000000000000000000000004D
:1003B000000000000000000000000000000000003D
:1003C000000000000000000000000000000000002D
:1003D0004ACBCBCBCBEBEBFBFB0FFF03FF0303FFC6
:1003E00003FFFF03FFFF06FCF8F0C000061F7DEDD2
:1003F000ADADADADED7D1F060000000000000000BA
:1004000000000000000000000000000000000000EC
:1004100000000000000000000000000000000000DC
:1004200000000000000000000000000000000000CC
:10043000000000000000000000000080808080803C
:100440008C8C8C0C0C0C0C0C0C6CFC3CEE2622E204
:100450003EFEFE9C0C000000071CFF00FF0000FF9A
:1004600000FFFF00FFFF00FFFF00FFFEE0000000B5
:10047000FF02FEFF000030FE0EFE1F11F111F31708
:10048000FF3606060606060606060606000000E01B
:1004900060E0E0C0C0C080800000000000000000FC
:1004A0000080C060606040404040C08080808383A6
:1004B000838383838383030383DB7F4F7B49487874
:1004C0004F7F5F67C380000080C07F407F40407FD8
:1004D000407F407FC0800000C0F07F407F40407F71
:1004E000407F7F407F7F407F7F407F7FFFFC000019
:1004F000FF00FFFF0080C07F407F40407F407F4083
:100500007FC0808080808080808080808080C0FFED
:10051000E0FFFFE0D0CCC2C100000000000000807E
:100520000003078FBAFAFAFAF3D3D6D6D6DEDCD4B4
:10053000D4D4D4D4D6D7D7D5D5D5D5D5D5D5D5D56A
:10054000D5D5D7D7D7D5D5D5D5D5D5D5D5D5D5D555
:10055000D5D5D5D5D5D5D5D5D5D5D5D5D5B5B5B5AB
:10056000B5B5B5ADADADADADADADADADADADABABA7
:10057000ABABABABABABABABABABABABABABABABCB
:10058000ABABABAAAAAAAAAAAAAAAAAAAAAAAAAAC8
:10059000AAAAEAEAEAEA3E87008080000056AB5544
:1005A000AA55AA55AA55AA54AB55AA57AB54AB5550
:1005B000AA55AB55AA55AB54AB54AB55AB55AA5540
:1005C000AB55AA55AA54AA55AB55AA57A956AB5430
:1005D000AA57A857AA55AA57A956AB54AA55AB551E
:1005E000AB55AA55AB55AB55AB55AB55AA57A9570B
:1005F000A956A957AB54AB55AB57AB55AB55AB55FB
:10060000AB55AB55AA57AB57AA57AB54AB57AA57E4
:10061000AB55AA57AB55AB55AB55AA55AA49249231
:1006200049249249A452B1141211E422F1FC22A2ED
:10063000A2A4A5A4A4B92022A9A4A2A9A4A2A9A461
:10064000A2A9A4A2A9A4A291C8EAE9E8EAE9E8CA91
:10065000D1942249841249249249249249924924EE
:10066000924824914225964424944322871F22A233
:1006700022129252128E4222924A22924A22924A86
:1006800022924A22924A2284492B8B4B2B8B4B2954
:1006900085442291482492492492492492924924E3
:1006A00092098442A154B2111412E124F0FC22A256
:1006B000A2A4A4A5A4B82124A2A9A4A2A9A4A2A9E1
:1006C000A4A2A9A4A2A9A492C9E8EAE9E8EAE9C80F
:1006D000D291244289249249249249249224924915
:1006E000249248219245269444249342079F222233
:1006F000A2121292520E824A22924A22924A2292C6
:100700004A22924A22924224894B2B8B4B2B8B49B3
:1007100025944221904824924924924924249249C4
:1007200024128944A251B4121114E221F0FC22A235
:10073000A2A4A4A4A5B82229A4A2A9A4A2A9A4A25F
:10074000A9A4A2A9A4A2A190CAE9E8EAE9E8EAC991
:10075000D092214492092492492492492449249216
:10076000492490492295462494442392471FA2226B
:1007700022925212924E22924A22924A22924A2265
:10078000924A22924A229244298B4B2B8B4B2B89E3
:100790004524924924924924924924924949249219
:1007A0004924128944A251B41211E422F1FC22A27C
:1007B000A2A4A5A4A4B92022A9A4A2A9A4A2A9A4E0
:1007C000A2A9A4A2A9A4A291C8EAE9E8EAE9E8CA10
:1007D000D19422498412492492492492499249246D
:1007E000924924904922954624944322871F22A2AD
:1007F00022129252128E4222924A22924A22924A05
:1008000022924A22924A2284492B8B4B2B8B4B29D2
:100810008544229148249249249249249292492461
:100820009249249249A452B11412E124F0FC22A26C
:10083000A2A4A4A5A4B82124A2A9A4A2A9A4A2A95F
:10084000A4A2A9A4A2A9A492C9E8EAE9E8EAE9C88D
:10085000D291244289249249249249249224924993
:10086000249248249142259644249342079F2222B1
:10087000A2121292520E824A22924A22924A229244
:100880004A22924A22924224894B2B8B4B2B8B4932
:100890002594422190482492492492492424924943
:1008A0002492098442A154B21114E221F0FC22A244
:1008B000A2A4A4A4A5B82229A4A2A9A4A2A9A4A2DE
:1008C000A9A4A2A9A4A2A190CAE9E8EAE9E8EAC910
:1008D000D092214492092492492492492449249295
:1008E000492492482192452694442392471FA222EC
:1008F00022925212924E22924A22924A22924A22E4
:10090000924A22924A229244298B4B2B8B4B2B8961
:10091000452492492492492492492492491C221C3C
:10092000003E0A02003E0A0200000000001C221CD9
:10093000003E0408103E000000000000000000001F
:1009400000000000000000000000000000000000A7
:1009500000000080C0E040800000000000000000B7
:100960000000000000000000000000000000000087
:100970000000000000000E3FFDF9F2E2C484080808
:10098000D0F8FEFFFFFF00010638F0F8F8FC7C3ECF
:100990001E0FC7330E000000000000000000000022
:1009A00000000080C0A0A090908B8F8F87878782E7
:1009B000878F9FBFFF7FC0E0F0F8FDFFFDFCFCF8D4
:1009C000FCFBF0F0E0E0C080000000000000000050
:1009D0000000000001030307876F1F0F1F9FDFFF49
:1009E000DF0F070301FFFFFEFCF8F02070F0F0F8C6
:1009F000F8E884040202010000000000000000008A
:100A0000000000000000386671783C3E1F1F0F0F89
:100A1000070E30C000FFFFFF3F0F0508081011232D
:100A2000274F5F7E3800000000000000000000003B
:100A300000000000000000000000000000000000B6
:100A400000000000010301000000000000000000A1
:100A50000000000000000000000000000000000096
:100A60000000000000000000000000000000000086
:100A7000008040201088F0E0C080000000000000EE
:100A80000000000000000000000000000000000066
:100A90000000000000000000000000000000000254
:100AA0000302FE027B7B7B7BFF030302000000004E
:100AB0000000000000000000000000000000000036
:100AC000000000000000000000000000001C14FCFA
:100AD00017DD151D151D151D151D17FC141C000017
:100AE0000000000000000000000000000000000006
:100AF000000000000000000000000000000000FFF7
:100B0000C7F7C7C7C7C7C7C7C7C7C7FF0000000029
:100B100000000000000000000000000000000000D5
:100B200000000000000000000000000000F050DFA6
:100B3000515DD1515151D15151D1515FD07080008F
:100B400000000000000000000000000000000000A5
:100B500000000000000000000000300C03300C23F7
:100B6000003807300800033C00310638030439021E
:100B70003C00000000000000000000000000000039
:100B80000000000000000000000000000000000065
:100B900000000000000000000000000000808080D5
:100BA000C000000000000000000000000000000085
:100BB0000000000000000000000000000000000035
:100BC00000000000FEE2F2FAFE7F7F7F3F3F3F1F02
:100BD0000F00000000000000000000000000000006
:100BE0000000000000000000000000000000000005
:100BF00000000000FF0000000000000000000000F6
:100C000000000000000000000000000000000000E4
:100C100000000000000000000000000000000000D4
:100C200000000000FF0000000000000000000000C5
:100C300000000000000000000000000000000000B4
:100C4000000000000000000000F8FCFEFFFBF3E3E2
:100C5000C386FCF87F0000000000000000000000D8
:100C60000000000000000000000000000000000084
:100C70000000000000000000000001030707070754
:100C80000703010000000000000000000000000059
:100C90000000000000000000000000000000000054
:100CA0000000000000000000000000000000C0E0A4
:100CB000F0381C0C0C0C1C38F0E0C00000000000E8
:100CC0000000000000000000000000000000000024
:100CD00000000000000000000080808080C0C1C3D0
:100CE000C7CEFCB8B8B8FCCEC7C3C1C08080808076
:100CF00000000000000000000000000000000000F4
:100D00000000000C1E1A0B0B0B0F06060603030354
:100D10000202FEEEEEEEFE02020303030606060FDB
:100D20000B0B0B1A1E0C000000000000000000005E
:100D30000000008000000000000000000000000033
:100D400080C0FFB6B6B6FFC0800000000000000003
:100D5000000000000080000000000000000000080B
:100D60000C1E7BC19B7ECC88000000000000008030
:100D7000FF6D6D6D6D6D6D6DFF80000000000000FA
:100D80000088CC7E9BC17B3E0C0800000000000068
:100D9000000000000103070D1F1636343476565745
:100DA000555555555555555555575676343436166F
:100DB0001F0D0703010000000000000000FCFE03FF
:100DC0000303030303030303030383830383838373
:100DD00003038303038383030383838303030303E3
:100DE0008383030303830303038303830303838353
:100DF000830303030303030303030303030303FE48
:100E0000FC00FCFE030303030303030303030303C8
:100E100003030303030303030303030303030303A2
:100E20000303030303030303030303030303030392
:100E30000303030303030303030303FEFCFFFF0099
:100E4000000000000000000000098A8400808F80FC
:100E5000008F020F008F020D00000F00000000073E
:100E6000080A04000F020F000F000F000F000F0A06
:100E7000080000000000000000000000000000FF6B
:100E8000FF00FFFF00000000000000000000000065
:100E90000000000000000000000000000000000052
:100EA0000000000000000000000000000000000042
:100EB0000000000000000000000000FFFFFFFF0036
:100EC000000000000000000000098A84008F8200FA
:100ED0000088858205888000008080800080808076
:100EE0000000808000000000000000000000000002
:100EF000000000000000000000000000000000FFF3
:100F0000FF00FFFF000000000000000000000000E4
:100F100000000000000000000000000000000000D1
:100F200000000000000000000000000000000000C1
:100F30000000000000000000000000FFFFFFFF00B5
:100F4000000000000000000000870888000F820DEC
:100F5000008F0A88008F080700888F8800008F00A4
:100F600000090A848080008000000000800000806A
:100F7000008000000000000000000000000000FFF2
:100F8000FF00FFFF00000000000000000000000064
:100F90000000000000000000000000000000000051
:100FA0000000000000000000000000000000000041
:100FB0000000000000000000000000FFFFFFFF0035
:100FC0000000000000000000000F020F00070807EB
:100FD000000708070807000000000F0000070807C7
:100FE0000000000F0203000F0808000F020F0001AD
:100FF0000E0100000000000000000000000000FFE3
:10100000FF00FFFF000000000000000000000000E3
:1010100000000000000000000000000000000000D0
:1010200000000000000000000000000000000000C0
:101030000000000000000000000000FFFFC1E336D8
:101040003636363636363636363636363636363640
:101050003636363636363636363636363636363630
:101060003636363636363636363636363636363620
:10107000363636363636363636363636363636E363
:10108000C100FFFF000000000000000000000000A1
:101090000000000000000000000000000000000050
:1010A0000000000000000000000000000000000040
:1010B0000000000000000000000000FFFFFFFF0034
:1010C0000000000000000000000000000000000020
:1010D0000000000000000000000000000000000010
:1010E0000000000000000000000000000000000000
:1010F000000000000000000000000000000000FFF1
:10110000FF00FFFF000000000000000000000000E2
:1011100000000000000000000000000000000000CF
:1011200000000000000000000000000000000000BF
:101130000000000000000000000000FFFF3F7FC033
:10114000C0C0C0C0C0C0C0C0C0C0C0C0C0C0C0C09F
:10115000C0C0C0C0C0C0C0C0C0C0C0C0C0C0C0C08F
:10116000C0C0C0C0C0C0C0C0C0C0C0C0C0C0C0C07F
:10117000C0C0C0C0C0C0C0C0C0C0C0C0C0C0C07FB0
:101180003F003F7FC0C0C0C0C0C0C0C0C0C0C0C062
:10119000C0C0C0C0C0C0C0C0C0C0C0C0C0C0C0C04F
:1011A000C0C0C0C0C0C0C0C0C0C0C0C0C0C0C0C03F
:1011B000C0C0C0C0C0C0C0C0C0C0C07F3F00000031
:1011C000000000000000000000000000000000001F
:1011D000000000000000000000000000000000000F
:1011E00000001010100000007C107C003844380013
:1011F0003C403C403C000000047C04003844380083
:1012000000007C1408007C404000781478000C70CA
:101210000C00000010101000000000000000000092
:1012200000000000000000000000000000000000BE
:1012300000000000000000000000000000000000AE
:10124000111F1000100000009F4542001FD0508069
:101250001E45DE400ED151801F151180400043DC39
:101260004300CE11CE00DF505F00DF459A00C04042
:10127000521509009F449F00D15F9100DF45420055
:101280001255C94000C011DF11C05F8204C85F4021
:1012900012D54940115F91001F110E001F1511005A
:1012A0000000011F01001F041F001F151100000096
:1012B000000000000000000000000000000000002E
:1012C000D050700000000000F3541503E057E10611
:1012D000E0141704F047F4030000F0532400F00773
:1012E0000000E751E70037C53400F7511600F75505
:1012F000A400000027519700F741F600E715E4002D
:10130000E010E70010F71107205791060007F504D9
:10131000F007F5244084F30010F01000F000000006
:10132000000010F01000F040F000F050100000003D
:1013300000000000000000000000000000000000AD
:101340000101010001000000495525007D107D00CC
:10135000447D45007D14090048542500000079159E
:1013600079007D1469007C55440001495524013CF5
:10137000413C007C0911207C017C112844010000C3
:101380000001000000010000010100000000010157
:101390000100010000000100010101000101010044
:1013A0000000000100000100010001010100000037
:1013B000000000000000000000000000000000002D
:1013C00015151F0010000000111F11001F0501005E
:1013D0000000031C03000E110E001F101F00000070
:1013E0001F041F00111F1100011F013000121509F9
:1013F000001F041F000E110E000E110E00011F0130
:101400000000001E051E000E11150C001E051E001A
:10141000111F11001F0204081F000000000000003F
:1014200000000000000000000000000000000000BC
:1014300000000000000000000000000000000000AC
:10144000000000000000000000000000000000009C
:10145000000000000000000000000000000000008C
:10146000000000000000000000000000000000007C
:10147000000000000000000000000000000000006C
:10148000000000000000000000000000000000005C
:10149000000000000000000000000000000000004C
:1014A000000000000000000000000000000000003C
:1014B000000000000000000000000000000000002C
:1014C000000000000000000000000000000000001C
:1014D000000000000000000000000000000000000C
:1014E00000000000000000000000000000000000FC
:1014F00000000000000000000000000000000000EC
:1015000000000000000000000000000000000000DB
:1015100000000000000000000000000000000000CB
:1015200000000000000000000000000000000000BB
:1015300000000000000000000000000000000000AB
:10154000000000000000000000000000000000009B
:10155000000000000000000000000000000000008B
:10156000000000000000000000000000000000007B
:10157000000000000000000000000000000000006B
:10158000000000000000000000000000000000005B
:10159000000000000000000000000000000000004B
:1015A000000000000000000000000000000000003B
:1015B000000000000000000000000000000000002B
:1015C000000000000000000000000000000000001B
:1015D000000000000000000000000000000000000B
:1015E00000000000000000000000000010101000CB
:1015F0000000384444007C1468007C5444007C445F
:101600003800447C4400047C04004854240000005A
:10161000101010000000000000000000000000009A
:1016200000000000000000000000000000000000BA
:1016300000000000000000000000000000000000AA
:10164000000000000000000000000000000000009A
:1016500000000000000000007C5428007C1468009A
:10166000781478007C4438000C700C0000001010D6
:101670001000007C443800781478007C1468007CEA
:10168000106C007C54440048542400047C0400483E
:101690005424007C140800447C44007C1468007CC2
:1016A00054440000000000000000000000000000A2
:1016B000000000000000000000000000000000002A
:1016C0000000000000007C5444007C047804780092
:1016D00078147800447C44007C40400000101010D6
:1016E00000007C542800485424007C107C007C546A
:1016F000440078147800047C04007C5444007C147A
:1017000068007C82BAAABAA25C007C447C007C405F
:101710007C00047C04007C4040007C447C007C44D1
:101720007C007C106C004000384444007C447C0009
:101730007C04780478000000000000000000000035
:1017400000000000000000000000047C04007C4059
:101750003C403C00447C4400047C0400047C0400C5
:101760007C5444007C1468000010101000007C823F
:10177000BAAABAA25C007C5428007C1468007C08D9
:1017800010207C003844543000447C44007C081015
:10179000207C003844543000047C04007C107C0021
:1017A000781478007C107C007C5444007814780015
:1017B000047C0400000000000000000000000000A5
:1017C0000000000000000000000000000000000019
:1017D0000000000000000000000000000000000009
:1017E00000000000000000000000000000000000F9
:1017F00000000000000000000000000000000000E9
:1018000000000000000000000000000000000000D8
:1018100000000000000000000000000000000000C8
:1018200000000000000000000000000000000000B8
:1018300000000000000000000000000000000000A8
:101840000000000000000000000000000000000098
:101850000000000000000000000000000000000088
:101860000000000000000000000000000000000078
:101870000000000000000000000000000000000068
:101880000000000000000000000000000000000058
:101890000000000000000000000000000000000048
:1018A0000000000000000000000000000000000038
:1018B0000000000000000000000000000000000028
:1018C0000000000000000000000000000000000018
:1018D0000000000000000000000000000000000008
:1018E00000000000000000000000000000000000F8
:1018F00000000000000000000000000000000000E8
:1019000000000000000000000000000000000000D7
:1019100000000000000000000000000000000000C7
:1019200000000000000000000000000000000000B7
:1019300000000000000000000000000000000000A7
:101940000000000000000000000000000000000097
:101950000000000000000000000000000000000087
:101960000000000000000000000000000000000077
:101970000000000000000000000000000000000067
:101980000000000000000000000000000000000057
:101990000000000000000000000000000000000047
:1019A0000000000000000000000000000000000037
:1019B0000000000000000000000000000000000027
:1019C0003E1C08000000000000000080C0C0C0C035
:1019D000C0C0C0C0C0C0C0C0C0C0C0C0C0C0C0C007
:1019E000C0C0C0C0C0C0C0C0C0C0C0C0C0C0C0C0F7
:1019F000C0C0C0C0C0C0C0C0C0C0C0C0C0800000A7
:101A0000000103FFFFFFFF030100000000000000D2
:101A10000000E0A04000E0000000C0A0C000C02026
:101A20002000E0A02000000040A02000E080E000B6
:101A300020E02000E0A0400040A0200000000000C6
:101A400000000000000000000000FFFF0100000097
:101A50000000000001000000000000000100000084
:101A60000000000001000000000000000100000074
:101A700000000000010000000000000001FFFF0066
:101A8000000000FFFFFFFF0000000000000000005A
:101A90000000030000000302020003000300010233
:101AA0000200030202000000020201000300030022
:101AB0000203020003000000020201000000000017
:101AC00000000000000000000000FFFF0100000017
:101AD0000000000001000000000000000100000004
:101AE00000000000010000000000000001000000F4
:101AF00000000000010000000000000001FFFF00E6
:101B0000000000FFFFFFFF000000000000000000D9
:101B1000000000F804C2D9C1D204F800000000009F
:101B2000000000C03C82D1C9823CC000000000001F
:101B300000000000F00EE1810EF000000000000047
:101B400000000000000000000000FFFF0100000096
:101B50000000000001000000000000000100000083
:101B60000000000001000000000000000100000073
:101B700000000000010000000000000001FFFF0065
:101B8000000000FFFFFFFF00000000000000000059
:101B90000000003F40BCBFBFBC403F000000000051
:101BA000000000FF002589994500FF0000000000AB
:101BB000000000FC0398DD1C5803FC00000000003E
:101BC00000000000000000000000FFFF0100000016
:101BD0000000000001000000000000000100000003
:101BE00000000000010000000000000001000000F3
:101BF00000000000010000000000000001FFFF00E5
:101C0000000000FFFFFFFF000000000000000000D8
:101C100000000000000000000000000000000000C4
:101C20000000001F608E9F9F8E601F00000000005C
:101C30000000007F803C7E7E3C807F000000000032
:101C400000000000000000000000FFFF0100000095
:101C50000000000001000000000000000100000082
:101C60000000000001000000000000000100000072
:101C700000000000010000000000000001FFFF0064
:101C8000000000FFFFFFFF00000000000000000058
:101C90000000000000000000000000000000000044
:101CA0000000000000000000000000000000000034
:101CB000000000000F30E3E7300F000000000000DC
:101CC00000000000000000000000FFFF0100000015
:101CD0000000000001000000000000000100000002
:101CE00000000000010000000000000001000000F2
:101CF00000000000010000000000000001FFFF00E4
:101D0000000000FFFFFFFF000000000000000000D7
:101D10000000F028F00050000000F8281000F880C3
:101D20008000F028F00070888800F8A8A800000063
:101D300090A84800F820F80088F88800F8281000DB
:101D40000000000000000000000001030706060676
:101D50000606060607060606060606060706060621
:101D60000606060607060606060606060706060611
:101D7000060606060706060606060606070301000F
:101D80000080C0FFFFFFFFC08000000000000000D7
:101D900000007C542800280000007C1468003844AF
:101DA0003800047C040078147800047C04007C541F
:101DB00054000000000000000000000000000000CF
:101DC0000000000000000000000000242A12002291
:101DD0003E22003E0408103E003E08360000002E61
:101DE0000000000000000000000000003C023C0277
:101DF0003C00223E2200242A1200242A1200000065
:101E000000000000000000000000000000000000D2
:101E10003E083E00223E2200023E0200000000007A
:101E2000000000000000003E2A22003E0408103E90
:101E3000003E2A22003C023C023C0006380600001C
:101E400000023E02003E203E003E0A34003E0408EE
:101E5000103E0000000000000000000006380600F0
:101E60001C221C003E203E003E0A34000000023EC0
:101E700002003E203E003E0A34003E0408103E00B0
:101E800000000000006289304A94AA44290000241E
:101E9000181824000000F00EE1810EF000FC0398F9
:101EA000DD1C5803FC7F803C7E7E3C807F000F3031
:101EB000E3E7300F00182424244252525A52429928
:101EC000BDBD8195B18199BDBDBDBD99425A5A4AEA
:101ED00042243C1818C03C82D1C9823CC0FF002576
:101EE00089994500FF1F608E9F9F8E601F182442B6
:101EF0004A524299BDBD81A59989A1859999BDBDD7
:101F0000BD9942423CF804C2D9C1D204F83F40BC5A
:101F1000BFBFBC403F18244289A981BDBD9999BD6E
:101F2000BDBDBD423CE7818100008181E70000002A
:101F30000000F0F81C0C0C0C0C0C0C0C1C0C0C0C09
:101F40000C0C0C0C1C0C0C0C0C0C0C0C1C0C0C0CB1
:101F50000C0C0C0C1C0C0C0C0C0C0C0C1C0C0C0CA1
:101F60000C0C0C0C1CF8F000000103FFFFFFFF033A
:101F7000010000F0F81C0C0C0C0C0C0C0C1C0C0CD4
:101F80000C0C0C0C0C1C0C0C0C0C0C0C0C1C0C0C71
:101F90000C0C0C0C0C1C0C0C0C0C0C0C0C1C0C0C61
:101FA0000C0C0C0C0C1CF8F00000000000000000F1
:101FB0000000FFFF10000000000000001000000003
:101FC00000000000100000000000000010000000F1
:101FD00000000000100000000000000010000000E1
:101FE0000000000010FFFF00000000FFFFFFFF00E7
:101FF000000000FFFF1000000000000000100000C3
:1020000000000000001000000000000000100000B0
:1020100000000000001000000000000000100000A0
:10202000000000000010FFFF0000000000000000A2
:102030000000FFFF10000000000000001000000082
:102040000000000010000000000000001000000070
:102050000000000010000000000000001000000060
:102060000000000010FFFF00000000FFFFFFFF0066
:10207000000000FFFF100000000000000010000042
:102080000000000000100000000000000010000030
:102090000000000000100000000000000010000020
:1020A000000000000010FFFF000000000000000022
:1020B0000000FFFF10000000000000001000000002
:1020C00000000000100000000000000010000000F0
:1020D00000000000100000000000000010000000E0
:1020E0000000000010FFFF00000000FFFFFFFF00E6
:1020F000000000FFFF1000000000000000100000C2
:1021000000000000001000000000000000100000AF
:10211000000000000010000000000000001000009F
:10212000000000000010FFFF0000000000000000A1
:102130000000FFFF10000000000000001000000081
:10214000000000001000000000000000100000006F
:10215000000000001000000000000000100000005F
:102160000000000010FFFF00000000FFFFFFFF0065
:10217000000000FFFF100000000000000010000041
:10218000000000000010000000000000001000002F
:10219000000000000010000000000000001000001F
:1021A000000000000010FFFF000000000000000021
:1021B0000000FFFF10000000000000001000000001
:1021C00000000000100000000000000010000000EF
:1021D00000000000100000000000000010000000DF
:1021E0000000000010FFFF00000000FFFFFFFF00E5
:1021F000000000FFFF1000000000000000100000C1
:1022000000000000001000000000000000100000AE
:10221000000000000010000000000000001000009E
:10222000000000000010FFFF0000000000000000A0
:1022300000001F3F706060606060606070606060A0
:10224000606060607060606060606060706060606E
:10225000606060607060606060606060706060605E
:1022600060606060703F1F00000000FFFFFFFF0024
:102270000000001F3F7060606060606060706060C0
:10228000606060606070606060606060607060602E
:10229000606060606070606060606060607060601E
:1022A0006060606060703F1F000000000000000080
:1022B000000000000000000000000000000000001E
:1022C000000000000000000000000000000000000E
:1022D00000000000000000000000000000000000FE
:1022E00000000000000000000080C0FFFFFFFFC0F2
:1022F000800000000000000000000000000000005E
:1023000000000000000000000000000000000000CD
:1023100000000000000000000000000000000000BD
:1023200000000000000000000000000000000000AD
:1023300000000000000000000080C000C0C0C0C05D
:1023400000C0C000000080C000C0C0C0C000C0808D
:10235000000000C0C00080000000008000C0C0007D
:102360000000C0C000C0C0C0C0C0C000000000006D
:1023700000000080C000C0C0C0C000C0800000C01D
:10238000C000000000000000C0C00000C0C000C0CD
:10239000C0C0C0C0C00000C0C000C0C0C0C000C03D
:1023A00080000000000000000000000000000000AD
:1023B0000000000000000000007FFF00CCCCCCCC6F
:1023C00000FC78000000FFFF000C0C0C0C00FFFF6D
:1023D000000000FFFF00070F1E1E0F0700FFFF0099
:1023E0000000FFFF00CCCCCCCCC0C000000000003F
:1023F0000000007FFF00C0C0C0C000FF7F00000FD2
:102400001F003060C06030001F0F0000FFFF00CCD5
:10241000CCCCCCC0C00000FFFF000C0C2C6CE0CF7B
:102420008700000000000000000000000000000025
:10243000000000000000000000000000000000009C
:10244000000000000000000000000000000000008C
:10245000000000000000000000000000000000007C
:10246000000000000000000000000000000000006C
:10247000000000000000000000000000000000005C
:1024800000000000000080000000000000000000CC
:10249000000000000000000000000000000000003C
:1024A000000000000000000000000000000000002C
:1024B000000000000000000000000000000000001C
:1024C000000000000000000000000000000000000C
:1024D00000000000000000000000000000000000FC
:1024E00000824000090208E070013401E00001C0F0
:1024F0000280200028C0004018D04000001045088D
:10250000A008A020C040040000000000000000005F
:1025100000000000000000000000000000000000BB
:1025200000000000000000000000000000000000AB
:10253000000000000000000000000000000000009B
:10254000000000000000000000000000000000008B
:10255000000480000008000000406008C62020A0A1
:1025600006DC9E9800000000001C9F00520000BF87
:1025700000D9B700FFFD006E7900FEFA40000000B0
:10258000B0003044000010320A5208104000000031
:10259000800000000000000000000000000000209B
:1025A000004000008000000000000000000000006B
:1025B0000080C0000000400040400000000000001B
:1025C000000000008000000000000000000000404B
:1025D0004C5C1D40C080000080C06F403F40007BCD
:1025E000405F407BC0800000C0A05B407B404079E2
:1025F000007E37406F7F401D7F407F1F12440000E8
:102600009400162000008003000300000800000072
:102610003000000080000000008000800000405971
:10262000604099E0D0C8C2C00000000000000080F7
:102630000003078FBAFAFAFAF3D2D6D6D6D4CCD0A2
:10264000D4C00484D0D4D78511D0D4C49550C5D477
:10265000D4D554C5D7D5D5D5D5D4D5D5D5D5D5D5BB
:10266000D5D5D5D5D4D5D5D5D5D1D5D1D5B5B5B583
:10267000B4B5B5ADADADADACACADADADA9ADA3A987
:10268000A1AA0880A2A2A08808818000A9892000B0
:1026900020822208A888880288208AA8AAA8A8AA36
:1026A000AAA8EAEAEAEA3E87008080000056AB5515
:1026B000AA55AA55AA55AA54AB55AA57AB54AB551F
:1026C000AA55AA55AA55AA54AB54AB55AB55AA5511
:1026D000AB55AA55AA54AA55AB55AA57A956AB54FF
:1026E000AA57A857AA55AA57A956AB54AA55AB55ED
:1026F000AB55AA55AB55AB55AB55AA55AA57AB55DB
:10270000AA56A957AB54AB55AB53AB55AA55AB54CE
:10271000AB54A954AA57AB57A857AA54AB57AA57BA
:10272000AB55AA57AB55AB55AB55AA55AA000000FF
:102730000000000000000000000000000000000099
:1027400000000000000000000000C0C00000000009
:102750000000C0C0000080C000C0C0C0C000C08079
:102760000000C0C0000000000000C0C00000000069
:102770000000C0C0000000000000C0C00000C0C0D9
:10278000C000C0C000C0C0C00000C0C000800000C9
:10279000000000C0C00000000000000000000000B9
:1027A0000000000000000000000000000000000029
:1027B0000000000000000000000000000000000019
:1027C0000000000000000000000001030700FEFE02
:1027D0000007030100007FFF00C0C0C0C000FF7FF2
:1027E00000007FFF00C0C0C0C000FF7F00000000ED
:1027F00000007FFF00C0DEDEC000FF7F0000C0C021
:10280000C000FFFF00C0C0C00000FFFF00070F1E98
:102810003C7800FFFF000000000000000000000006
:1028200000000000000000000000000000000000A8
:102830000000000000000000000000000000000098
:102840000000000000000000000000000000000088
:102850000000000000000000000000000000000078
:102860000000000000000000000000000000000068
:102870000000000000000000000000000080C0E038
:10288000F0D0D0F0E0C080000000000000000000A8
:1028900000000000000000E0E000A0A04040A0A078
:1028A000A020C000000000000000000000000000A8
:1028B0000000000000000000000000000000000018
:1028C0000000000000000000000000000000000008
:1028D00000000000000000000000000000000000F8
:1028E0004ACBCBCBCBEBEBFBFB0FFF03FF0303FF91
:1028F00003FFFF03FFFF06FCF8F0C000061F7DED9D
:10290000ADADADADED7D1F06000000000000000084
:1029100000000000000000FFFF0015152425221A0A
:102920001A100F000000000000000000000000006E
:102930000000000000000000000000000000000097
:102940000000000000000000000000808080808007
:102950008C8C8C0C0C0C0C0C0C6CFC3CEE2622E2CF
:102960003EFEFE9C0C000000071CFF00FF0000FF65
:1029700000FFFF00FFFF00FFFF00FFFEE000000080
:10298000FF02FEFF000030FE0EFE1F11F111F317D3
:10299000FF360606060606F6F6060606000000E006
:1029A00060E0E0C0C0C080800000000000000000C7
:1029B0000080C060606040404040C0808080838371
:1029C000838383838383030383DB7F4F7B4948783F
:1029D0004F7F5F67C380000080C07F407F40407FA3
:1029E000407F407FC0800000C0F07F407F40407F3C
:1029F000407F7F407F7F407F7F407F7FFFFC0000E4
:102A0000FF00FFFF0080C07F407F40407F407F404D
:102A10007FC08080808080FFFF8080808080C0FFBA
:102A2000E0FFFFE0D0CCC2C1000000000000008049
:102A30000003078FBAFAFAFAF3D3D6D6D6DEDCD47F
:102A4000D4D4D4D4D6D7D7D5D5D5D5D5D5D5D5D535
:102A5000D5D5D7D7D7D5D5D5D5D5D5D5D5D5D5D520
:102A6000D5D5D5D5D5D5D5D5D5D5D5D5D5B5B5B576
:102A7000B5B5B5ADADADADADADADADADADADABAB72
:102A8000ABABABABABABABABABABABABABABABAB96
:102A9000ABABABAAAAAAAAAAAAAAAAAAAAAAAAAA93
:102AA000AAAAEAEAEAEA3E87008080000056AB550F
:102AB000AA55AA55AA55AA54AB55AA57AB54AB551B
:102AC000AA55AB55AA55AB54AB54AB55AB55AA550B
:102AD000AB55AA55AA54AA55AB55AA57A956AB54FB
:102AE000AA57A857AA55AA57A956AB54AA55AB55E9
:102AF000AB55AA55AB55AB55AB55AB55AA57A957D6
:102B0000A956A957AB54AB55AB57AB55AB55AB55C5
:102B1000AB55AB55AA57AB57AA57AB54AB57AA57AF
:102B2000AB55AA57AB55AB55AB55AA55AA000000FB
:102B300000250028002B002E00310000000000249A
:102B40000027002A002D00300004040404040304BC
:102B5000050202020204030202020206060606063B
:102B6000060404020202040404080201104080402A
:102B700010204080408008020401804020100201A3
:102B80001080102040402000A31F11241FBECFEF53
:102B9000DAE0DEBFCDBF11E0A0E0B1E0E6EBF6E5A4
:102BA00002C005900D92AC39B107D9F726E0ACE927
:102BB000B1E001C01D92A93EB207E1F715E1C5ECF5
:102BC000D5E104C02197FE010E943F2BC43CD107F0
:102BD000C9F70E94D51F0C94592B0C9400008091CA
:102BE000C101089590E0FC01E859F44D2491875B00
:102BF000944DFC018491882399F090E0880F991FEF
:102C0000FC01E55CF44DA591B491FC01E35DF44D4C
:102C1000859194918FB7F894EC91E22BEC938FBF50
:102C20000895EEE7F2E0A0E0B8E000800EBC81116C
:102C3000012C1197A0FDFDCF0192B9F70DB40895B5
:102C400080E00C9411162F923F924F925F926F92F8
:102C50007F928F929F92AF92BF92CF92DF92EF922C
:102C6000FF920F931F93CF93DF9330E0F901E80FAA
:102C7000F91F1E161F060CF098C0803891050CF045
:102C800094C0FB01E00FF11D1E161F060CF08DC055
:102C9000603471050CF089C0DB0177FF04C0AA27FE
:102CA000BB27A61BB70BA770BB27EB0177FD2796A9
:102CB000E3E0D595C795EA95E1F777FF07C021973F
:102CC00068E070E0FB01EA1BFB0BDF01069506954F
:102CD0000695602E712C7A01AE015695542F44272B
:102CE00057954795480F591F42585D4FBE01E8E080
:102CF000F0E02F014A1A5B0A6F3FFFEF7F070CF4E9
:102D000044C06C0110E000E04A01F0E88F0E911C15
:102D1000D7FC2EC06F3F760709F45AC0F701E00FC9
:102D2000F11FE4915A01A00EB11EF0E01F010A2E1E
:102D300001C0220C0A94EAF7F50130802328208292
:102D40001097B1F06730710599F0F701E00FF11FAE
:102D5000E4915401A00EB11EF0E01F01042C02C04A
:102D6000359427940A94E2F7F501308023282082D5
:102D70000F5F1F4FFFEFCF1ADF0A021713072CF464
:102D8000E0E8CE16D10409F0C3CF6F5F7F4FE20EAB
:102D9000F31E40585F4FFB01EC1BFD0BE615F705DA
:102DA00024F46830710509F0A7CFDF91CF911F910E
:102DB0000F91FF90EF90DF90CF90BF90AF909F90DA
:102DC0008F907F906F905F904F903F902F900895DD
:102DD000109709F0BACFCCCF80E0EEE7F2E0811196
:102DE0008FEF002481938193819381930394D1F792
:102DF0000895FC0180917D02882311F13FB7F8947A
:102E000082E08093E9002091F200822F90E0181672
:102E1000190614F481E090E0882339F0289844E6FC
:102E200040937C024091F1004083222339F02091AD
:102E3000F200211103C02BE62093E8003FBF089564
:102E40008FEF9FEF08952FB7F89483E08093E90008
:102E50009091E800892F807295FF04C09091F20054
:102E600080E4891B2FBF08958091740281110DC0E9
:102E700082E08093700284E080937102109273026A
:102E80001092720281E08093740280E792E00895CC
:102E900008954091B1015091B2012091AF0130915C
:102EA000B00142175307B4F49091E8009570E1F334
:102EB0009091E80092FD19C08093F1008091B101DA
:102EC0009091B20101968F739927892B19F48EEF97
:102ED0008093E8008091B1019091B20101969093A6
:102EE000B2018093B10181E0089580E00895DF92FE
:102EF000EF92FF920F931F93CF93DF93D82E8A0107
:102F0000EB017B01E40EF51ECE15DF0559F0D7FE6F
:102F100012C0FE0184910E94491721968111F4CFBD
:102F20000FEF1FEFC801DF91CF911F910F91FF901D
:102F3000EF90DF9008958881EECF0F931F93CF938A
:102F4000DF931F92CDB7DEB782E0898342E450E081
:102F50006BEC70E080E80E9477170E943417DC0168
:102F600012960D911C910115110589F0D801ED9172
:102F7000FC910280F381E02DBE016F5F7F4FC8019D
:102F8000099597FD04C0F80100851185ECCF898172
:102F90000F90DF91CF911F910F910895615030F004
:102FA0002091F100FC0120830196F8CF289884E657
:102FB00080937C020895CF93DF931F92CDB7DEB745
:102FC0006983DC01ED91FC910280F381E02D41E009
:102FD00050E0BE016F5F7F4F09950F90DF91CF9159
:102FE000089583E08093E9008091F200882319F02E
:102FF0008AE38093E80008950E94231790E00895E3
:10300000CF93DF931F92CDB7DEB7FC018485958502
:1030100097FD08C02FEF3FEF358724870F90DF9192
:10302000CF910895CE0101960E94F916019719F4E7
:10303000898190E0F3CF8FEF9FEFF0CF0F931F9335
:10304000CF93DF931F92CDB7DEB78C01FC0184854F
:10305000958597FF0BC0CE0101960E94F916019746
:1030600071F4898190E0F80195878487F80184855F
:1030700095850F90DF91CF911F910F9108958FEF5C
:103080009FEFF1CFFC018485958597FD0BC09FB71D
:10309000F89482E08093E9008091F2009FBF90E075
:1030A000019608959FB7F89482E08093E90080919B
:1030B000F2009FBF90E00895282F30E0F901E45519
:1030C000FF4F9491F901E859F44D8491275B344DF9
:1030D000F9012491222309F430C09923E9F0915099
:1030E0009F30D0F4E92FF0E0E858F74E0C943F2BD6
:1030F000A618AA1887189E18A2188C188C188C1855
:10310000AD18B318B718BB18C1188C18C518909112
:1031100080009F7790938000E22FF0E0EE0FFF1F7A
:10312000E35DF44DA591B4919FB7F894EC916111D2
:1031300032C080958E238C939FBF0895909180001C
:103140009F7DE8CF90918000977FE4CF94B59F77E3
:1031500094BDE2CF94B59F7DFBCF909190009F7777
:1031600090939000D9CF909190009F7DF9CF90914E
:103170009000977FF5CF9091C0009F779093C0000B
:10318000CBCF9091C0009F7DF9CF9091C200977FE7
:103190009093C200C1CF8E2BCECF3FB7F8948091D1
:1031A000AB019091AC01A091AD01B091AE0126B5FB
:1031B000A89B05C02F3F19F00196A11DB11D3FBF6F
:1031C000BA2FA92F982F8827BC01CD01620F711D3E
:1031D000811D911D42E0660F771F881F991F4A9538
:1031E000D1F708958F929F92AF92BF92CF92DF92C4
:1031F000EF92FF926B017C010E94CD184B015C01A4
:10320000C114D104E104F104B9F00E94CD18681989
:1032100079098A099B09683E73408105910580F30D
:1032200021E0C21AD108E108F10888EE880E83E097
:10323000981EA11CB11CE4CFFF90EF90DF90CF90BF
:10324000BF90AF909F908F9008958F929F92AF9272
:10325000BF92CF92DF92EF92FF920F931F93CF9383
:10326000DF936C017B018A0180910B01882309F4B3
:103270005CC080917D02882309F457C08091B5011C
:1032800080FF05C08091E00082608093E000E8014B
:10329000B12C8AEFA82E93E0892E2AE3922E209754
:1032A00011F4BB20D9F10E94231781110AC0AA94FE
:1032B000AA20D9F161E070E080E090E00E94F2186D
:1032C000EECF8C171D0611F00CF08C2F9FB7F894E1
:1032D0008092E9002091E80025FD02C09FBFDFCF6A
:1032E000282F30E0C21BD30BF701815020F0419111
:1032F0004093F100FACFE20EF31EBB2021F0909232
:10330000E800B12CEBCF8091E80085FDE7CF9092EB
:10331000E800BB24B394209709F3F3CF5D9884E6CB
:103320008093B401101611063CF081E090E0F601A4
:103330009383828310E000E0C801DF91CF911F9159
:103340000F91FF90EF90DF90CF90BF90AF909F9044
:103350008F9008952FB7F8946091A7017091A801FC
:103360008091A9019091AA012FBF08952091BC01DD
:10337000E091BA01F091BB01CF0102969093BB019D
:103380008093BA01222319F0859194910895808148
:1033900091810895CF92DF92EF92FF92CF93DF93C6
:1033A0000E94B619811520E8920791F4809171006E
:1033B0008D7F8093710010929100469847981092EB
:1033C000B701DF91CF91FF90EF90DF90CF900895FC
:1033D00021E02093B701813020E8920751F48091D9
:1033E000B8019091B9019093BB018093BA010E94FA
:1033F000B61997FD05C020919F01222309F454C0FE
:1034000020919E01211150C021E02093A001EC01E8
:10341000DF77209709F04BC081E08093A1014698A7
:103420003FE9C32E3FE0D32EE12CF12CCAEFD0E0D0
:10343000E091DC06F091DD060995811103C081E081
:103440008093A1018091A001882329F08091A1019E
:10345000882309F43FC047980E94B6190097F1F1FC
:103460009C01DE010E941C2BDC01CB0129E0B595FB
:10347000A795979587952A95D1F7109290002AE005
:1034800020939100D0929900C09298008093A2015D
:103490009093A301A093A401B093A5018091710022
:1034A0008260809371008DCF1092A001B0CF9E01F9
:1034B00050E040E060E472E48FE090E00E94C82AAF
:1034C00069017A0181E0C81AD108E108F108109277
:1034D000A101AECF4699BFCF479ABECF8FEF9FEFE6
:1034E000DC01CBCF9C01E1E7F0E090819D7F9083F0
:1034F0001092BC01EEECF6E0F093BB01E093BA0150
:10350000F093B901E093B801318320837383628320
:1035100080E090E8958384830C94CA192D9A0895CD
:10352000BC0190E080E00C94F2188FB18095807F10
:10353000669B88601C9B846008951092C1013E9830
:103540003F9808953E9A3F9A81E08093C101089583
:103550000E94951A85FF10C080919C0190919D0159
:10356000019719F490E080E0089581E090E0909355
:103570009D0180939C0108950E94951A86FF09C0C1
:1035800080919C0190919D01029761F382E090E00F
:10359000EECF0E94951A84FF09C080919C01909102
:1035A0009D010397F9F283E090E0E1CF0E94951A24
:1035B00087FF09C080919C0190919D01049791F231
:1035C00084E090E0D4CF0E94951A83FF09C08091D7
:1035D0009C0190919D01059729F285E090E0C7CF6D
:1035E0000E94951A82FF0AC080919C0190919D01D2
:1035F000069709F4B7CF86E090E0B9CF10929D010D
:1036000010929C01AFCFBC01685B7F4FAC01445F5F
:103610005F4FFC0121913191CF01225031092330BC
:10362000310540F04E175F07A1F76417750771F772
:1036300081E0089580E00895CF93DF93DB01EA01F4
:10364000288139816CE0629FF001639FF00D1124A5
:103650002A813B81220F331FE20FF31FE80FF91F6E
:103660008081918182309105B9F486E090E0918368
:10367000808316968D919C911797019717969C932E
:103680008E931697892B29F483E090E0DF91CF91F8
:10369000089582E090E0FACF8330910571F486E0DE
:1036A00090E0918380831E968D919C911F97019746
:1036B0001F969C938E931E97E5CF8430910571F4ED
:1036C00086E090E09183808356968D919C915797E8
:1036D000019757969C938E935697D4CF892B39F4A4
:1036E00085E090E09183808381E090E0CFCF90E00F
:1036F00080E0CCCF0F931F93CF93DF938C01085BB7
:103700001F4F30E020E050E040E070E060E0DC017E
:103710001C96EC01E991F991CE01E230F105C1F47A
:103720006F5F7F4FA817B907A1F70A171B0779F733
:103730006230710539F44330510521F481E02430C1
:10374000310509F080E0DF91CF911F910F9108952D
:10375000E330F10519F44F5F5F4FE4CF349711F771
:103760002F5F3F4FDFCFEF92FF921F93CF93DF93F7
:10377000FB01EB0168961CE02481358121153105A0
:10378000D9F466817781261737079CF540815181EE
:10379000E280F380E20EF31E1E9DD0011F9DB00D4E
:1037A0001124A80FB91F440F551FA40FB51F6D9307
:1037B0007C932F5F3F4FE5CF50E040E066817781FB
:1037C00046175707B4F422813381129FD001139F0B
:1037D000B00D1124A80FB91F20813181240F351F8E
:1037E000220F331FA20FB31F6D937C934F5F5F4F68
:1037F000E5CF3896EC17FD0709F0BECFDF91CF91EA
:103800001F91FF90EF9008956EE170E08AE292E0E0
:103810000C94721ACF92DF92EF92FF926B017C01AF
:10382000C114D104E104F10441F00E945A2AA70115
:1038300096010E94C82A6B017C01C701B601FF9066
:10384000EF90DF90CF9008951F920F920FB60F92D6
:1038500011248F939F938091E1009091E100937FD9
:103860009093E10083FF0FC01092E90091E09093E4
:10387000EB001092EC0092E39093ED0010927D0229
:1038800098E09093F00082FF22C093E09093E900CB
:103890009091F200992319F09AE39093E8009091A7
:1038A000B401992341F09091B40191509093B401E7
:1038B000911101C05D9A90917C02992341F0909101
:1038C0007C02915090937C02911101C0289A84FF50
:1038D00018C08091E2008E7E81608093E20080912A
:1038E000E1008F7E8093E1008091B5018E7E806142
:1038F0008093B5019F918F910F900FBE0F901F90F5
:10390000189580FFF7CF8091E2008E7E80618093D2
:10391000E2008091E1008E7E8093E1008091B5010C
:103920008E7E8160E5CF1F920F920FB60F92112409
:10393000CF92DF92EF92FF920F931F932F933F93BB
:103940004F935F936F937F938F939F93AF93BF93A7
:10395000EF93FF93CF93DF93CDB7DEB76C97DEBFC6
:10396000CDBF1092E9008091E80083FF25C068E098
:10397000CE0145960E94CE1782EF8093E8008D8994
:1039800087FF39C09091E80090FFFCCF982F907688
:1039900009F034C19E894F89588D2F89F88C911177
:1039A00031C0803861F58091B6018093F1001092AA
:1039B000F1008EEF8093E8006C960FB6F894DEBFAE
:1039C0000FBECDBFDF91CF91FF91EF91BF91AF912E
:1039D0009F918F917F916F915F914F913F912F9127
:1039E0001F910F91FF90EF90DF90CF900F900FBE3F
:1039F0000F901F9018959EEF9093E800C7CF1092FC
:103A0000F100D5CF913059F48111D3CF4130510518
:103A100081F68091B6018D7F8093B601CACF933035
:103A200049F48111C6CF4130510519F68091B60194
:103A30008260F2CF953041F48091E80080FFFCCFA6
:103A400020682093E300B5CF963009F0A9C00B8D14
:103A50001C8D22E01092E9001092B2011092B10187
:103A6000F2122EC01092B0011092AF010E949D1769
:103A70001F8299E09983FA8291E09E8390EA988769
:103A80009AEF99872091B1013091B201275F3F4FA2
:103A90003C832B838D831092E9001092B201109227
:103AA000B1011093B0010093AF0149E050E0BE01B5
:103AB0006F5F7F4F80E00E9477170E949D1779CF3C
:103AC0001093B0010093AF010E943417DC011296ED
:103AD0000D911C910115110509F451C1D801ED9109
:103AE000FC910480F581E02DBE016B5E7F4FC80123
:103AF0000995009709F03EC1F80100851185EACFCC
:103B0000F3E0FF120EC08F89882309F440C0823091
:103B100061F440E860E18FE291E00E94701F811142
:103B200048CF81E28093EB0047CF813029F440E811
:103B30006BE083E291E0F1CF833099F70E94341774
:103B4000DC011296ED90FC908E010F5F1F4F680113
:103B5000E114F10479F0D701ED91FC910680F78131
:103B6000E02DB801C7010995080F111DF701E08488
:103B7000F184EECFD8011C92F60101900020E9F704
:103B80003197BF016C197D0940E0C601C6CF6DE0D9
:103B900071E0FB01449150E080E80E94771709CF63
:103BA000973009F4BECF983021F481E08093F10082
:103BB00000CF993009F0FDCE837009F0B2CFEDE768
:103BC000F1E081E031E096E32191222371F08093CE
:103BD000E9003093EB00DF0111972C912093EC006A
:103BE0009093ED008F5F873079F78EE78093EA003E
:103BF0001092EA008F8980937D02DBCE8B8D9C8DA5
:103C00001092E9001092B2011092B1019093B001AC
:103C10008093AF01898D811192C08E899D89913ADF
:103C200049F4813209F07DCF47E050E064E071E073
:103C300080E0B3CF913209F074CF833269F48F8979
:103C4000988DB0E0A0E08093000190930101A093D3
:103C50000201B0930301ADCE803269F48091E80097
:103C600082FFFCCF67E084E091E00E94CE178BEFEB
:103C70008093E8009ECE823209F09BCE8F8980939C
:103C80000B01EEEFFFE7859194918B3F9C4D51F135
:103C9000E0E0F8E08091040190910501A091060117
:103CA000B0910701803B9440A105B105F1F48091EA
:103CB0000B0180FD1AC0EE3F8AE0F80789F587E71F
:103CC00097E791838083809160008093B30188E1BE
:103CD0009BE00FB6F894A895809360000FBE909378
:103CE000600067CEEEEFFAE0D5CF80819181873713
:103CF000974709F05ECEA895809160008861809317
:103D000060008091B30180936000EE3F2AE0F207EB
:103D100089F08091FE0A9091FF0A9183808349CEB9
:103D2000808191818737980751F29093FF0A8093A1
:103D3000FE0AC5CF1092FF0A1092FE0A3ACE0E94E8
:103D40003417DC0112960D911C910115110509F42F
:103D5000E8CED801ED91FC910190F081E02DBE01FB
:103D60006B5E7F4FC8010995811123CEF801008554
:103D70001185EBCF181619060CF41BCED2CEF1E04C
:103D8000FF12BECE61E171E004CF1F920F920FB619
:103D90000F9211242F933F938F939F93AF93BF93D1
:103DA0008091A7019091A801A091A901B091AA01C9
:103DB0003091A60123E0230F2D3758F50196A11D60
:103DC000B11D2093A6018093A7019093A801A09311
:103DD000A901B093AA018091AB019091AC01A0918F
:103DE000AD01B091AE010196A11DB11D8093AB0153
:103DF0009093AC01A093AD01B093AE01BF91AF9190
:103E00009F918F913F912F910F900FBE0F901F9018
:103E1000189526E8230F0296A11DB11DD2CF1F923F
:103E20000F920FB60F9211242F933F934F935F93EE
:103E30006F937F938F939F93AF93BF93EF93FF9372
:103E40008091A2019091A301A091A401B091A5013C
:103E5000892B8A2B8B2B09F440C08091A101811101
:103E60000BC088B190E4892788B98091A00188238C
:103E700019F088B1805888B98091A2019091A3016E
:103E8000A091A401B091A501181619061A061B06E7
:103E90009CF48091A2019091A301A091A401B09102
:103EA000A5010197A109B1098093A2019093A301F3
:103EB000A093A401B093A501FF91EF91BF91AF91A1
:103EC0009F918F917F916F915F914F913F912F9132
:103ED0000F900FBE0F901F9018950E94CA19ECCF3B
:103EE000EF92FF920F931F93CF93DF93F82E192F2A
:103EF000E62E042F81E0860F880F0E94491783E089
:103F00000E944917CF2DD12FEC0EFD2EF11CCE159E
:103F1000DF05B9F007FF13C0FE0184910E94491725
:103F2000182F80E00E944917812321968111EFCF3D
:103F3000DF91CF911F910F91FF90EF9008958881AD
:103F4000EDCF81E0F5CFEEE7F6E01382128288EE46
:103F500093E0A0E0B0E084839583A683B78387E8ED
:103F600091E0918380838FEF9FEF95878487EEEDBB
:103F7000F6E089E991E0918380831582168280E1E1
:103F800087831482138211868FEE95E19093DD066C
:103F90008093DC0680E090E89093DB068093DA065D
:103FA00046983E9A47983F9A0895789484B58260DF
:103FB00084BD84B5816084BD85B5826085BD85B5CD
:103FC000816085BD80916E00816080936E0010924B
:103FD00081008091810082608093810080918100C6
:103FE0008160809381008091800081608093800057
:103FF0008091910082608093910080919100816016
:1040000080939100809190008160809390008091D6
:10401000C10084608093C1008091C1008260809360
:10402000C1008091C10081608093C1008091C30074
:1040300081608093C3008091C00082608093C00043
:104040008091C20081608093C20080917A00846078
:1040500080937A0080917A00826080937A008091C8
:104060007A00816080937A0080917A0080688093E2
:104070007A0010927D021092B6011092B5018091E3
:10408000D70081608093D70080EA8093D80089B5FB
:10409000806189BD89B5826089BD09B400FEFDCF0C
:1040A00061E070E080E090E00E94F2188091D8001A
:1040B0008F7C80618093D8008091E000807F809326
:1040C000E0008091E1008E7E8093E1008DE080939E
:1040D000E200559A209A8FEF9FEF90938B06809382
:1040E0008A0681EC80937C0085B1806F85B984B1AC
:1040F000877E84B984B1876E84B95E9A5F988AB1ED
:10410000806D8AB9769A6E9881B3806F81BB8998E9
:1041100080B38D7080BB80E58CBD81E08DBD85E076
:1041200090E00E94901A5F9A85E090E00E94901AB9
:104130005E985C98E0EFF1E084918EBD00000DB4D4
:1041400007FEFDCF319601E0ED3FF007A9F75C9A3D
:1041500081E88093640080916500816080936500B0
:104160000E9420160E94951A87FF15C05C9885EA68
:104170008EBD00000DB407FEFDCF5C9A2E982F98DF
:104180002D988091640080628093640081E083BFF9
:10419000889513BEFCCF0E94951A82FF48C02D98C7
:1041A0000E94951A84788438E1F40E948E1A88EC73
:1041B00090E00E94901A2F9882E090E00E94B22A2C
:1041C0008F3F29F06FEF82E090E00E94BA2A84EFDF
:1041D00091E00E94901A2F9A0E94951A8478843850
:1041E000D9F30E94951A84718431E1F40E948E1AE9
:1041F00088EC90E00E94901A2E9882E090E00E9455
:10420000B22A882329F060E082E090E00E94BA2A76
:1042100084EF91E00E94901A2E9A0E94951A847160
:104220008431D9F388EC90E00E94901AB4CF0E94B8
:104230008E1A82E090E00E94B22A882309F44BC1D2
:104240000E94A21A81E090E00E94B22A182F1470F6
:1042500081E090E00E94B22A81FF0CC011112E98DB
:10426000C1EFDFEF0E94951A86FF38C12E9A2F9A70
:104270000E948E1A82E390E00E94901A0E94951A82
:104280008111F8CF809164008E7F809364008091CB
:104290007A00806480937A0080917A0086FDFCCF5A
:1042A000C0917800D09179000E94CD18AB01BC017B
:1042B000CE01B0E0A0E0DC01992788278C019D01A8
:1042C000040F151F261F371FC901B8012091640074
:1042D000216020936400611571058105910511F03D
:1042E0000E94A92A0E94A21A8AE00E94F2158BE07D
:1042F0000E94F21589E00E94F21581E080936F021E
:1043000092E0292E312C27E0422E512C80916F0211
:10431000813009F01EC10E94A81A059709F07DC0DE
:104320002BED31E043E252E090E080E0F901E80F4C
:10433000F91F11821082FA01E80FF91F1182108211
:1043400002968C30910591F7245F3F4F445F5F4F99
:1043500012E02332310741F7E0E6F1E0A8E4B1E0F2
:1043600088E791E01182108211961C921E921382AE
:10437000128213961C921E92129715821482159621
:104380001C921E921497389618968E179F0751F715
:10439000309267012092660130924F0120924E01C7
:1043A00083E090E090936F0180936E0190935701AA
:1043B0008093560184E090E090937701809376019A
:1043C00090935F0180935E011092C7011092C60125
:1043D00062E070E080E090E00E940A1C672B682B8E
:1043E000692B09F0A4C081E08093DA0162E070E0FB
:1043F00080E090E00E940A1C672B682B692B09F073
:1044000098C081E08093C80170E060E090E080E0B7
:104410000E94721A82E080936F028091B70181112D
:1044200013C0809171008D7F809371001092BC0148
:104430008CE091E09093BB018093BA019093B90115
:104440008093B8010E94CA190E94EC1600E420E88B
:104450004DE152E070E060E090E080E00E942316C1
:1044600061E08AE00E945C1861E08BE00E945C18C9
:1044700061E089E00E945C180E94AA19C090BD0109
:10448000D090BE01E090BF01F090C0016C197D0991
:104490008E099F09603971408105910508F456C065
:1044A0000E94AA196C197D098E099F096032734018
:1044B0008105910508F040C008E020E24DEF51E091
:1044C00067E170E089E090E00E94231660E089E0F7
:1044D0000E945C183BC00E949D1AB4CE112329F0A3
:1044E000C430D10511F42E9A2F9881E00E94111644
:1044F00000E128E540E451E0BE0184E190E00E9443
:1045000023160E9420168FE090E00E94901A2196B8
:10451000C931D10509F0A6CE112311F02F9A2D989B
:1045200080E991E00E94901A0E948E1AA3CE82E048
:104530005BCF1092C80168CF0E94AA196093BD0199
:104540007093BE018093BF019093C0010E9420161A
:104550008EC3823009F033C10E94A81A209146010F
:10456000309147018330910509F081C02130310538
:1045700009F06CC030924701209246010E94041C51
:104580000E94EC1600E420E84DEB5DE070E060E096
:1045900090E080E00E9423168091460190914701AF
:1045A00008E028E04DEB59E18130910509F094C015
:1045B00066E070E083E090E00E94231600E320E3D1
:1045C0004DE95CE068E070E08CE490E00E94231626
:1045D0008091C10108E020E14DE259E0811102C063
:1045E0004DE159E06EE070E08CE190E00E9423160E
:1045F0000E94AA19C090C201D090C301E090C401EA
:10460000F090C5016C197D098E099F0900E120E435
:104610004DE958E0643671058105910580F00E94EE
:10462000AA196C197D098E099F09683C71058105DD
:10463000910508F077C000E120E44DE158E06EE21A
:1046400070E082E090E00E942316B0C02230310575
:1046500039F483E090E090934701809346018ECF38
:1046600084E090E02330310509F08ACFF4CF843024
:10467000910591F42430310561F32330310509F4BB
:1046800079CF2230310509F07BCF41E050E05093E3
:1046900047014093460172CF059709F071CF86E03C
:1046A00021303105B1F02230310551F48091C10142
:1046B000882319F00E949D1A63CF0E94A21A60CF2E
:1046C00084E02330310529F02430310509F058CF3A
:1046D00083E080936F0254CF8230910559F46EE0ED
:1046E00070E083E090E00E94231600E320E34DE7B2
:1046F0005BE068CF039759F466E170E083E090E0F7
:104700000E94231600E320E34DE55AE05BCF6EE103
:1047100070E083E090E00E94231600E320E34DE385
:1047200059E050CF0E94AA196C197D098E099F0982
:104730006C3271408105910528F400E120E44DE9D7
:1047400057E07DCF0E94AA196C197D098E099F0937
:1047500000E120E44DE157E06039714081059105A9
:1047600008F46DCF0E94AA196C197D098E099F0962
:10477000643F71408105910528F400E120E44DE992
:1047800056E05DCF00E120E44DE156E06EE270E0DE
:1047900082E090E00E9423160E94AA196093C20151
:1047A0007093C3018093C4019093C50161E08AE0D6
:1047B0000E945C1861E08BE00E945C1887CE833019
:1047C000A1F40E94A81A892B19F082E080936F024D
:1047D0000E94EC1600E420E84DEB51E170E060E04F
:1047E00090E080E00E942316B1CE843071F40E94E4
:1047F000A81A892B19F082E080936F020E94EC16B0
:1048000000E420E84DEB55E1E9CF853009F0B9C16E
:104810000E94A81AEC01E091C601F091C701823014
:10482000910509F04CC083E0EE0FFF1F8A95E1F778
:10483000E05AFE4F84819581009759F480819181DF
:10484000853091059CF40196918380830E94041C1D
:104850000DC0019759F4808191814681578126E0EE
:1048600030E0241B350B821793076CF38091C6014F
:104870009091C701C430D10509F426C1C630D105D5
:1048800091F5B3E0880F991FBA95E1F7FC01E05A62
:10489000FE4F26813781A201421B530B9A014481AE
:1048A0005581452B09F020C14081518142175307A2
:1048B0000CF01AC181E090E09583848363C081305D
:1048C0009105D9F503E0EE0FFF1F0A95E1F7E05AD5
:1048D000FE4F80819181181619062CF4019791835F
:1048E00080830E94041C259709F058C08091C6015E
:1048F0009091C70101969093C7018093C6016EE124
:1049000070E086E091E00E94721A8091C601909159
:10491000C70103970CF442C060E671E083E292E0C5
:104920000E94B31B83E292E00E947A1B882309F461
:10493000E7C087E080936F0231C0039709F096CFFC
:1049400013E0EE0FFF1F1A95E1F7DF01A05ABE4FEB
:1049500014968D919C9115970097B9F412968D91AC
:104960009C91139716964D915C91179726E030E035
:10497000241B350BFD01821793070CF0B4CF019671
:10498000938382830E94041C09C0019739F4E05A82
:10499000FE4F82819381853091058CF30E94EC1645
:1049A00000E420E845EC59E170E060E090E080E050
:1049B0000E942316C091C601D091C701209709F02B
:1049C000B8C008E028E04DEB59E163E170E084E411
:1049D00090E00E94231660916201709163016F5F05
:1049E0007F4FF3E0660F771FFA95E1F78091600142
:1049F00090916101A3E0880F991FAA95E1F70796AE
:104A000020916401309165012130310509F0AAC07F
:104A100008E020E145E15FE10E9423161C161D0617
:104A20000CF048C060916A0170916B016F5F7F4F1D
:104A300053E0660F771F5A95E1F7809168019091D6
:104A40006901E3E0880F991FEA95E1F70796209145
:104A50006C0130916D012130310509F088C008E00A
:104A600028E14DEE5EE10E942316219719F1609135
:104A70007201709173016F5F7F4F33E0660F771F94
:104A80003A95E1F7809170019091710143E0880FB0
:104A9000991F4A95E1F707962091740130917501AD
:104AA0002130310509F068C008E020E245EB5EE105
:104AB0000E94231661E08AE00E945C1860E08BE0AF
:104AC0000E945C1861E003CDC3E0880F991FCA956E
:104AD000E1F7FC01E05AFE4F828193811816190616
:104AE0000CF05CCF01974CCFFC01E05AFE4F828165
:104AF0009381821793070CF051CF1582148242CF15
:104B0000E3E2F2E08BE692E01182108213821282DD
:104B100015821482178216821186108613861286D9
:104B20003C968E179F0781F71092C7011092C6011D
:104B300035CFC130D10549F408E028E04DEB59E10B
:104B400063E170E086E590E044CFC230D10509F022
:104B500042CF08E028E04DEB59E163E170E086E6E2
:104B600090E037CF00E128E045E05FE155CF08E174
:104B700028E045ED5EE177CF00E228E045E95EE11F
:104B800097CF863009F07BC061E089E00E945C1815
:104B9000C8E4D1E062E070E080E090E00E940A1C8E
:104BA0007D836C83672B09F044C066E070E080E091
:104BB00090E00E940A1C798368838E819F81B201F4
:104BC000681B790B072E000C880B990B161617061D
:104BD000180619061CF40E940A1C03C060E070E06D
:104BE000CB017B836A83289600E611E00C171D0732
:104BF00089F668E471E08BED91E00E94B31B8BEDC8
:104C000091E00E947A1B81112FC0EBEDF1E011823F
:104C100010821382128215821482178216821186E4
:104C20001086138612863C9612E0E332F10779F77C
:104C3000AFCF8E819F81B201681B790B072E000CCC
:104C4000880B990B16161706180619064CF40E94C5
:104C50000A1C7983688366E070E080E090E0BBCF57
:104C600060E070E0CB01F5CF85E080936F0280E0DB
:104C700090E0892B09F44ACB0E94000047CB873093
:104C800009F0A5C38091DA01813009F068C10E9462
:104C9000A81A8230910509F003C180916D029091AC
:104CA0006E02853091053CF4019690936E028093DC
:104CB0006D020E94041C0E94EC1600E420E84DE204
:104CC0005FE170E060E090E080E00E942316609178
:104CD0006B0270916C02F3E0660F771FFA95E1F7B3
:104CE0006C5F7F4F80916D0290916E02099608E093
:104CF00028E045E25FE1A3E0880F991FAA95E1F75C
:104D00000E94231620916401309165016091620137
:104D1000709163018091600190916101B3E0660F31
:104D2000771FBA95E1F76C5F7F4FC3E0880F991F3B
:104D3000CA95E1F72130310509F0C7C220E145E10C
:104D40005FE107960E94231660916A0170916B01E2
:104D500053E0660F771F5A95E1F76C5F7F4F8091A4
:104D6000680190916901E3E0880F991FEA95E1F7E6
:104D7000079620916C0130916D012130310509F0C9
:104D8000A9C208E028E14DEE5EE10E942316609181
:104D900072017091730133E0660F771F3A95E1F766
:104DA0006C5F7F4F809170019091710143E0880F9B
:104DB000991F4A95E1F7079620917401309175018A
:104DC0002130310509F08BC208E020E245EB5EE1BD
:104DD0000E9423168BED882E81E0982E93E2692E97
:104DE00092E0792E2CE0E22EF12C570158E0A51A22
:104DF000B108D12CC12CC8E4D0E0F301EC0DFD1DAD
:104E0000808191818530910509F06EC208E028E02B
:104E10004DE85EE1B501CE01815491090E9423164F
:104E2000F401EC0DFD1D8081918108E028E04DE842
:104E30005EE18530910531F0069741F408E028E005
:104E400045E85EE1B501CE010E942316289602E0F6
:104E5000C00ED11C1CE0C116D10479F62CE0820EE4
:104E6000911C38E0E30EF11C4CE0640E711C5CE315
:104E7000E516F10409F0B9CFE091DA01E150E8302C
:104E800008F064CBF0E0E85BF84D08E00C943F2BB1
:104E9000A529B429BC29C429CF29D729DF29E32989
:104EA0008130910551F480916D0290916E02181637
:104EB00019060CF000CF0197F8CE8330910571F4FC
:104EC00080916B0290916C02853091050CF0F3CECD
:104ED000019690936C0280936B02EBCE8430910527
:104EE00051F480916B0290916C02181619060CF027
:104EF000E2CE0197EECF059709F0DDCE4BE652E00A
:104F000068E471E08BED91E00E941C1B82309105FA
:104F100051F46EE170E088EB91E00E94721A83E038
:104F20008093DA01C8CE83309105A1F46EE170E080
:104F30008EEE91E00E94721A87E08093DA018BED89
:104F400091E00E94031B882309F4B5CE88E080938A
:104F50006F02B1CE019709F0AECE85E0E1CF82308D
:104F600009F097C164EF71E080E090E00E94F218D0
:104F70001092D9011092D8018091D701882309F4A9
:104F800051C08091D5019091D601009729F580916B
:104F9000D1019091D2012091CF013091D001821B9B
:104FA000930B97FD2AC09093CC018093CB01809105
:104FB000D3019091D4019093CE018093CD014BEC1D
:104FC00051E060E671E083E292E00E941C1B909346
:104FD000D9018093D80111C08130910509F086C0B4
:104FE0008091D1019091D2012091CF013091D001D7
:104FF000820F931F86309105B4F28091D801909171
:10500000D9018130910509F0A5C09093D00180931A
:10501000CF018091D5019091D60101969093D60150
:105020008093D5011092CA011092C9018091D801D4
:105030009091D901009709F0EFC08091C90190913A
:10504000CA012091C801222309F49BC0843691052E
:105050000CF0C1C066E070E080E090E00E940A1CA5
:10506000EB017093CC016093CB0163E070E080E0D2
:1050700090E00E940A1C8B01CE0162E070E00E9469
:105080002B2B000F111F800F911F9093CE01809347
:10509000CD014BEC51E060E671E083E292E00E94CA
:1050A0001C1B9093D9018093D8018091C9019091E4
:1050B000CA0101969093CA018093C9018091D801D9
:1050C0009091D901029709F0B1CF8091CB019091D5
:1050D000CC019093D2018093D1018091CD01909128
:1050E000CE019093D4018093D301A0CF823091055B
:1050F000A9F48091D3019091D4012091CF013091F6
:10510000D001821B930B97FD78CF2091D101309174
:10511000D2013093CC012093CB014DCF8330910548
:1051200079F48091D3019091D4012091CF013091F5
:10513000D001820F931F863091050CF05ECFE5CF32
:1051400004970CF45ACF1092D7011092D601109206
:10515000D50153CF009781F421E030E03093D001A6
:105160002093CF018091D5019091D6010196909323
:10517000D6018093D50100CF0297029708F0FCCEAC
:1051800051CF843691053CF566E070E080E090E018
:105190000E940A1C7093CC016093CB0163E070E025
:1051A00080E090E00E940A1C8B018091CB019091DD
:1051B000CC0162E070E00E942B2B41E050E0481BE4
:1051C000590BB801660F771F640F751F7093CE01DE
:1051D0006093CD015ECF66E070E080E090E00E94D9
:1051E0000A1C7093CC016093CB0166E070E080E014
:1051F00090E00E940A1C7093CE016093CD014BECAD
:1052000051E060E671E083E292E00E941C1B909303
:10521000D9018093D80152CF8130910511F486E0F5
:105220007FCE82309105B1F46EE170E088EB91E0C1
:105230000E94721A84E08093DA0181E08093D701A2
:105240008091CF019091D00101969093D0018093ED
:10525000CF0131CD039709F02ECD6EE170E08EEED7
:1052600091E00E94721A88E08093DA011092D701CF
:105270001092D0011092CF011092D6011092D50158
:1052800083E292E00E94031B882309F414CD89E095
:105290005ECE853039F40E94A81A059709F00BCD2F
:1052A00082E03ECE982F9B7F933039F40E94A81A5B
:1052B000059709F000CD81E033CE8630B9F3843014
:1052C00051F3883009F0F7CCE6CF00E128E045E063
:1052D0005FE137CD08E128E045ED5EE156CD00E223
:1052E00028E045E95EE174CD069709F099CDCE013D
:1052F000815491098E01095311099C01021713076A
:10530000F1F0A5014E155F05BCF4BA01F0E1E1E052
:1053100061FDE4E060FDEE0F62FDE295687FF69FBF
:10532000D0011124A20FA258BD4FE0956C91E62345
:10533000EC934F5F5F4FE6CF2F5F3F4FDFCF08E02B
:1053400028E045E85EE1B50169CD20E345E55EE191
:1053500068E370E089E490E00E94231661E08AE04F
:105360000E945C1861E0ABCB20E345E25EE168E3BC
:1053700070E088E090E0F0CF20E245E05EE168E395
:1053800070E081E590E094CB20E245E05EE168E3E7
:1053900070E080E190E00E94231660E0E0CF20E220
:1053A00045EE5DE168E370E081E590E04CC920E204
:1053B00045EE5DE168E370E080E190E044C920E201
:1053C00045EC5DE1DCCF20E245EC5DE1E0CF8830EB
:1053D000A9F40E94EC1600E420E84DE257E270E0E8
:1053E00060E090E080E00E9423160E9420160E9458
:1053F000A81A059709F03BCC81E037CC893039F405
:105400000E94EC1600E420E84DE253E2E8CF0E944F
:10541000EC1600E420E84DE257E2E0C98F929F923B
:10542000AF92BF92CF92DF92EF92FF92CF93DF9332
:10543000EC01688179818A819B8161157105810503
:10544000910521F464E279ED8BE597E02DE133EFEE
:1054500041E050E00E94C82A49015A019B01AC0179
:10546000A7EAB1E40E94E72A6B017C01ACEEB4EF3D
:10547000A50194010E94F52AC60ED71EE81EF91E4A
:10548000F7FE06C081E0C81AD108E10880E8F80AF2
:10549000C882D982EA82FB82C701B6019F77DF9179
:1054A000CF91FF90EF90DF90CF90BF90AF909F9003
:1054B0008F9008958F929F92AF92BF92CF92DF927A
:1054C000EF92FF92609178017091790180917A0159
:1054D00090917B01611571058105910521F464E2CC
:1054E00079ED8BE597E02DE133EF41E050E00E944C
:1054F000C82A49015A019B01AC01A7EAB1E40E9404
:10550000E72A6B017C01ACEEB4EFA50194010E9487
:10551000F52AC60ED71EE81EF91EF7FE06C081E06A
:10552000C81AD108E10880E8F80AC0927801D09240
:105530007901E0927A01F0927B01C701B6019F7771
:10554000FF90EF90DF90CF90BF90AF909F908F90A3
:105550000895609378017093790180937A01909314
:105560007B010895F999FECF92BD81BDF89A9927E4
:1055700080B50895262FF999FECF1FBA92BD81BD3F
:1055800020BD0FB6F894FA9AF99A0FBE01960895C5
:10559000052E97FB1EF400940E94DF2A57FD07D0CA
:1055A0000E94FA2A07FC03D04EF40C94DF2A50958F
:1055B0004095309521953F4F4F4F5F4F08959095FF
:1055C0008095709561957F4F8F4F9F4F08950E94F2
:1055D0001C2BA59F900DB49F900DA49F800D911D35
:1055E00011240895B7FF0C94E72A0E94E72A821B32
:1055F000930B0895A1E21A2EAA1BBB1BFD010DC03F
:10560000AA1FBB1FEE1FFF1FA217B307E407F50772
:1056100020F0A21BB30BE40BF50B661F771F881F4E
:10562000991F1A9469F760957095809590959B01E4
:10563000AC01BD01CF010895A29FB001B39FC0018D
:10564000A39F700D811D1124911DB29F700D811DAE
:105650001124911D089597FB072E16F4009407D08E
:1056600077FD09D00E94452B07FC05D03EF49095AC
:1056700081959F4F0895709561957F4F0895EE0F26
:10568000FF1F0590F491E02D0994AA1BBB1B51E16B
:1056900007C0AA1FBB1FA617B70710F0A61BB70BA2
:1056A000881F991F5A95A9F780959095BC01CD0147
:0656B0000895F894FFCFFD
:1056B600FFFFFFFF00E10000000000008B00F40187
:1056C6000000F4019C00F401E900E8039C00F401E9
:1056D600F700E8030000F4018B00F4010000F40178
:1056E6009C00F4018B00E8039C00F401DC00F4014B
:1056F6000000E80300800100000000000000020036
:10570600000000000000030000000000000004008C
:10571600000000000000020000000000000003007E
:1057260000000000000004000100000000C18081AC
:1057360000000000000000DB172519FC17F11742D6
:0C5746001800181E180000000048170092
:00000001FF
